:100000000C9462000C948A000C948A000C948A0070
:100010000C948A000C948A000C948A000C948A0038
:100020000C948A000C948A000C948A000C948A0028
:100030000C948A000C948A000C948A000C948A0018
:100040000C9418020C948A000C9488020C9462029E
:100050000C948A000C948A000C948A000C948A00F8
:100060000C948A000C948A000000000023002600F3
:10007000290000000008000201000003040700003E
:1000800000000000000000000000250028002B00F8
:1000900000000000240027002A00040404040404D3
:1000A0000404020202020202030303030303010227
:1000B00004081020408001020408102001020408F6
:1000C00010208E0311241FBECFEFD8E0DEBFCDBFBE
:1000D00011E0A0E0B1E0E0E9F7E002C005900D9288
:1000E000A432B107D9F721E0A4E2B1E001C01D922A
:1000F000AA3CB207E1F710E0C2E6D0E004C02197C5
:10010000FE010E94BB03C136D107C9F70E94BA02A3
:100110000C94C6030C940000CF93DF9390E0FC0195
:10012000E255FF4F2491FC01E656FF4F849188234E
:10013000C1F090E0880F991FFC01E057FF4FC59177
:10014000D491FC01EA57FF4FA591B4919FB7F89461
:100150008881E22FE0958E2388838C91E823EC93AD
:100160009FBFDF91CF910895CF92DF92EF92FF92E0
:100170000F931F93CF93DF936C017A018B01C0E043
:10018000D0E0CE15DF0589F0D8016D918D01D60143
:10019000ED91FC910190F081E02DC6010995892B2C
:1001A00011F47E0102C02196ECCFC701DF91CF91FF
:1001B0001F910F91FF90EF90DF90CF900895FC0179
:1001C000918D828D981761F0828DDF01A80FB11D8E
:1001D0005D968C91928D9F5F9F73928F90E00895B2
:1001E0008FEF9FEF0895FC01918D828D981731F06C
:1001F000828DE80FF11D858D90E008958FEF9FEFC0
:100200000895FC01918D228D892F90E0805C9F4F95
:10021000821B91098F73992708958DE291E00E94C6
:10022000010121E0892B09F420E0822F0895FC01CF
:10023000848DDF01A80FB11DA35ABF4F2C91848D6F
:1002400090E001968F739927848FA689B7892C93A4
:10025000A089B1898C9180648C93938D848D98133F
:1002600006C00288F389E02D80818F7D8083089508
:10027000EF92FF920F931F93CF93DF93EC0181E0F6
:10028000888F9B8D8C8D981305C0E889F9898081B2
:1002900085FD24C0F62E0B8D10E00F5F1F4F0F73EE
:1002A0001127E02E8C8DE8120CC00FB607FCFACF98
:1002B000E889F989808185FFF5CFCE010E94170179
:1002C000F1CF8B8DFE01E80FF11DE35AFF4FF08255
:1002D0000B8FEA89FB898081806207C0EE89FF89E4
:1002E0006083E889F98980818064808381E090E07F
:1002F000DF91CF911F910F91FF90EF900895CF93D1
:10030000DF93EC01888D8823C9F0EA89FB8980811D
:1003100085FD05C0A889B9898C9186FD0FC00FB6EF
:1003200007FCF5CF808185FFF2CFA889B9898C9130
:1003300085FFEDCFCE010E941701E7CFDF91CF916E
:10034000089580E090E0892B29F00E940D01811131
:100350000C940000089590E0FC01EE58FF4F2491AA
:10036000FC01E255FF4F3491FC01E656FF4FE4914A
:10037000EE23B9F1222339F1233091F038F4213002
:10038000A9F0223001F584B58F7D12C0273091F09D
:100390002830A1F02430B9F4809180008F7D03C013
:1003A000809180008F77809380000DC084B58F7717
:1003B00084BD09C08091B0008F7703C08091B000E8
:1003C0008F7D8093B000F0E0EE0FFF1FE859FF4FE4
:1003D000A591B491EC913E2381E090E021F480E07E
:1003E000089580E090E00895CF93DF93009779F02F
:1003F000FC0101900020E9F73197AF01481B590B30
:10040000BC018DE291E00E94B400EC0102C0C0E0AA
:10041000D0E042E050E060E171E08DE291E00E94C6
:10042000B4008C0F9D1FDF91CF9108950E94C103EE
:100430001F920F920FB60F9211242F933F938F9319
:100440009F93AF93BF938091290190912A01A0912E
:100450002B01B0912C013091280123E0230F2D377F
:1004600020F40196A11DB11D05C026E8230F0296B8
:10047000A11DB11D209328018093290190932A0189
:10048000A0932B01B0932C01809124019091250120
:10049000A0912601B09127010196A11DB11D809365
:1004A000240190932501A0932601B0932701BF91C9
:1004B000AF919F918F913F912F910F900FBE0F9011
:1004C0001F9018951F920F920FB60F9211242F9321
:1004D0003F934F935F936F937F938F939F93AF93CC
:1004E000BF93EF93FF938DE291E00E941701FF917C
:1004F000EF91BF91AF919F918F917F916F915F919C
:100500004F913F912F910F900FBE0F901F90189514
:100510001F920F920FB60F9211242F938F939F93D8
:10052000EF93FF93E0913D01F0913E018081E091D6
:100530004301F091440182FD12C0908180914601F7
:100540008F5F8F7320914701821751F0E091460130
:10055000F0E0E35DFE4F958F8093460101C08081FE
:10056000FF91EF919F918F912F910F900FBE0F9060
:100570001F901895789484B5826084BD84B581609D
:1005800084BD85B5826085BD85B5816085BD80915E
:100590006E00816080936E001092810080918100D6
:1005A00082608093810080918100816080938100CE
:1005B000809180008160809380008091B100846090
:1005C0008093B1008091B00081608093B0008091F1
:1005D0007A00846080937A0080917A0082608093B0
:1005E0007A0080917A00816080937A0080917A000D
:1005F000806880937A001092C100E0913D01F091F3
:100600003E0182E08083E0913901F0913A0110824D
:10061000E0913B01F0913C018FEC80831092450109
:10062000E0914101F091420186E08083E0913F0139
:10063000F0914001808180618083E0913F01F091E1
:100640004001808188608083E0913F01F09140010A
:10065000808180688083E0913F01F091400180813A
:100660008F7D808382E00E948C0083E00E948C005A
:1006700084E00E948C0085E00E948C0087E00E944C
:100680008C0086E00E948C0088E00E948C0089E04B
:100690000E948C0082E00E94AB01019719F483E173
:1006A00091E037C083E00E94AB01019719F485E126
:1006B00091E02FC084E00E94AB01019719F487E11B
:1006C00091E027C085E00E94AB01019719F489E110
:1006D00091E01FC087E00E94AB01019719F48BE104
:1006E00091E017C086E00E94AB01019719F48DE1FB
:1006F00091E00FC088E00E94AB01019719F48FE1EF
:1007000091E007C089E00E94AB01019721F481E2EA
:1007100091E00E94F4010E94A101BCCFEDE2F1E062
:100720001382128288EE93E0A0E0B0E08483958388
:10073000A683B78384E091E09183808385EC90E089
:100740009587848784EC90E09787868780EC90E09B
:10075000918B808B81EC90E0938B828B82EC90E08C
:10076000958B848B86EC90E0978B868B118E128E06
:10077000138E148E0895EE0FFF1F0590F491E02D57
:10078000099481E090E0F8940C94C603F894FFCFAC
:10079000000000003801B4000101DF00F3007F0118
:1007A0000D0A00550044004600420052004C004330
:0407B00000630000E2
:107E0000112484B714BE81FFF0D085E080938100F7
:107E100082E08093C00088E18093C10086E0809377
:107E2000C20080E18093C4008EE0C9D0259A86E02C
:107E300020E33CEF91E0309385002093840096BBD3
:107E4000B09BFECF1D9AA8958150A9F7CC24DD24C4
:107E500088248394B5E0AB2EA1E19A2EF3E0BF2EE7
:107E6000A2D0813461F49FD0082FAFD0023811F036
:107E7000013811F484E001C083E08DD089C08234E0
:107E800011F484E103C0853419F485E0A6D080C0E4
:107E9000853579F488D0E82EFF2485D0082F10E0AE
:107EA000102F00270E291F29000F111F8ED06801E7
:107EB0006FC0863521F484E090D080E0DECF843638
:107EC00009F040C070D06FD0082F6DD080E0C81688
:107ED00080E7D80618F4F601B7BEE895C0E0D1E017
:107EE00062D089930C17E1F7F0E0CF16F0E7DF06D8
:107EF00018F0F601B7BEE89568D007B600FCFDCFD4
:107F0000A601A0E0B1E02C9130E011968C91119780
:107F100090E0982F8827822B932B1296FA010C0160
:107F200087BEE89511244E5F5F4FF1E0A038BF0790
:107F300051F7F601A7BEE89507B600FCFDCF97BE46
:107F4000E89526C08437B1F42ED02DD0F82E2BD052
:107F50003CD0F601EF2C8F010F5F1F4F84911BD097
:107F6000EA94F801C1F70894C11CD11CFA94CF0C13
:107F7000D11C0EC0853739F428D08EE10CD085E9AC
:107F80000AD08FE07ACF813511F488E018D01DD067
:107F900080E101D065CF982F8091C00085FFFCCF94
:107FA0009093C60008958091C00087FFFCCF809118
:107FB000C00084FD01C0A8958091C6000895E0E648
:107FC000F0E098E1908380830895EDDF803219F02E
:107FD00088E0F5DFFFCF84E1DECF1F93182FE3DFCA
:107FE0001150E9F7F2DF1F91089580E0E8DFEE27F6
:047FF000FF270994CA
:027FFE00040479
:0400000300007E007B
:00000001FF
