:10000000C8C10000EDC10000EBC10000E9C1000063
:10001000E7C10000E5C10000E3C10000E1C100004C
:10002000DFC10000DDC10000D7C3000078C40000BC
:10003000D7C10000D5C10000D3C10000D1C100006C
:10004000CFC10000CDC10000CBC10000C9C100007C
:10005000C7C10000C5C10000C3C10000E1C200006B
:10006000BFC10000BDC10000BBC10000B9C100009C
:10007000B7C10000B5C10000B3C10000B1C10000AC
:10008000AFC10000ADC10000ABC10000A9C10000BC
:10009000A7C10000A5C10000A3C10000A1C10000CC
:1000A0009FC100009DC100009BC10000000104052C
:1000B00006070D0C0B0A09080A0B0C0D07060504B0
:1000C00001000800010000120312000200009A0162
:1000D0009600220200BD025500210200EE01090037
:1000E00022030085023800210300070209002204D0
:1000F0000030025500210400200209000300009690
:100100000104010309047C0118020309043C013EB7
:10011000030309042E010C040309041E010E0E033F
:10012000530065007200690061006C0000000C0360
:100130003100320033003400350000003E0353002C
:1001400065007200690061006C002B004B006500C7
:10015000790062006F006100720064002B004D00A6
:100160006F007500730065002B004A006F00790076
:1001700073007400690063006B00000018035400F2
:10018000650065006E007300790064007500690009
:100190006E006F00000004030904090296000501C7
:1001A00000C032080B000202020104090400000131
:1001B00002020100052400100105240100010424AD
:1001C0000206052406000107058203100040090409
:1001D0000100020A000000070503024000000705B5
:1001E000840240000009040200010301010009210A
:1001F00011010001225500070581030800010904CF
:10020000030001030102000921110100012238004D
:10021000070585030800020904040001030000002B
:10022000092111010001225500070586030C000178
:1002300005010904A1011500250175019520050995
:10024000190129208102150025073500463B01755B
:10025000049501651405010939814205010901A1CF
:1002600000150026FF03750A95040930093109328B
:1002700009358102C0150026FF03750A950209366B
:1002800009368102C005010902A1010509190129E8
:10029000081500250195087501810205010930093D
:1002A0003109381581257F750895038106050C0AEB
:1002B00038021581257F750895018106C005010961
:1002C00006A10175019508050719E029E715002524
:1002D0000181029508750115002501050C09E90940
:1002E000EA09E209CD09B509B609B709B88102954D
:1002F00005750105081901290591029501750391FC
:1003000003950675081500257F05071900297F81CB
:1003100000C012010002EF020140C0168704710202
:1003200001020301C106C11280368136C106C11621
:100330002C5E7460616264346667656E362D373892
:10034000271E1F202122232425267333762E77781B
:100350005F4445464748494A4B4C4D4E4F505152D9
:10036000535455565758595A5B5C5D2F3130636D65
:10037000350405060708090A0B0C0D0E0F101112A3
:10038000131415161718191A1B1C1D6F7170752A76
:10039000530A11241FBECFEFDAE0DEBFCDBF11E05C
:1003A000A0E0B1E0E0ECF5E102C005900D92A033D1
:1003B000B107D9F721E0A0E3B1E001C01D92AF344D
:1003C000B207E1F711E0C9ECD1E004C02197FE01CA
:1003D0000E94BF0AC83CD107C9F77BD50C94DE0A3E
:1003E0000FCE40E855E260E070E085E491E00BD785
:1003F00068EE73E080E090E053C1AF92BF92CF927D
:10040000DF92EF92FF920F931F93BC01990F880B1D
:10041000990B1F921F921F9224E62F932CE9A22E74
:10042000BB24BA94CB2CDB2C1EE5E12EFF24F394E5
:1004300000E010E024E630E040E050E00BD56B0136
:1004400000E020E040E08EE391E0EFD743E050E0B1
:1004500068E071E085E491E0D6D5A601DD0C660B7D
:10046000770B85E491E0EAD444E050E06CE071E081
:1004700085E491E0C8D540E050E0BA0185E491E020
:10048000DDD485E491E05ED40F900F900F900F9033
:100490006AE070E080E090E01F910F91FF90EF9094
:1004A000DF90CF90BF90AF90FBC085E153D070E05C
:1004B00060E0A3CF1DBA109268001CBC10BE1FBA2A
:1004C00010927A0010926E0010926F0010927100DC
:1004D000109272001092C900ECEBF0E0108214B898
:1004E00017B81AB81DB810BA108215B818B81BB8CA
:1004F0001EB811BA0895F894E1E6F0E020E82083F0
:10050000108283E084BD85BDEEE6F0E080818160ED
:10051000808381E08093800092E0909381008093BB
:100520009000909391009093C00094E09093C1004C
:100530008093C2008093C3001092C40086E8809329
:100540007A0020937B0010927E0010927D00E7D00D
:10055000789408958731D8F5E82FF0E0E455FF4FFF
:10056000E491E83028F580917E0021E030E00E2E05
:1005700001C0220F0A94EAF7822B80937E0080E864
:1005800080937B0080910001E82BE0937C008091B8
:100590007A00806480937A0080917A0086FDFCCF97
:1005A000909178008091790089279827892708956C
:1005B000E85080917D0021E030E00E2E01C0220F36
:1005C0000A94EAF7822B80937D0080EAD9CF90E0ED
:1005D00080E00895F89484B7877F84BF809160009D
:1005E0008061809360001092600080E29EE4019739
:1005F000F1F781E08093E00080E28093D80080E60C
:100600009AEE0197F1F756DF0C94003FFFCFF89474
:1006100051DF80E69AEE0197F1F70C940000FFCFCE
:100620008F938FB78F93809130018D5F8D37D0F48A
:1006300080933001809131018F5F80933101D8F038
:10064000809132018F4F80933201A8F08091330165
:100650008F4F8093330178F0809134018F4F8093D6
:10066000340109C08D5780933001809131018E5F34
:100670008093310128F7809135018C5F809335019B
:1006800058F0809136018F4F8093360128F0809189
:1006900037018F4F809337018F918FBF8F911895BE
:1006A000CF92DF92EF92FF926B017C0119D09B01F8
:1006B000C114D104E104F10429F4FF90EF90DF901C
:1006C000CF9008950DD0621B730B683E734080F38A
:1006D00081E0C81AD108E108F10828513C4FE8CF61
:1006E0000FB6F89466B515B2709135018091360158
:1006F000909137010FBE10FE05C06F3F19F07C5F6F
:100700008F4F9F4F11240024660F001C660F001CA2
:10071000702908958091E80080FFFCCF08958091B2
:10072000D80087FF02C085FF56C081E08093D700C4
:1007300080EA8093D80082E189BD09B400FEFDCF34
:1007400080E98093D8001092E00010926B01109223
:100750006A01109269011092610110926201109277
:10076000630110926401109265011092660110926B
:1007700067011092680181E0809360019DE790938A
:100780005F0110925E0110925D0110925C018093F6
:100790005B0110924F011092500110925101109282
:1007A00052018FE08093530190E29093540180E8CE
:1007B000809355011092560122E02093570128E0C2
:1007C000209358019093590180935A011092E100AF
:1007D0008DE08093E20008951F920F920FB60F9262
:1007E00011242F933F934F935F936F937F938F9336
:1007F0009F93AF93BF93EF93FF939091E10010927B
:10080000E10093FF11C01092E90081E08093EB00BA
:100810001092EC0082E38093ED0088E08093F0007A
:1008200010926B011092690192FF47C080916B0199
:10083000882309F442C080913C01882359F08150FB
:1008400080933C01811106C084E08093E9008AE333
:100850008093E80080913B01882331F081508093A0
:100860003B01811101C0B6DE80915F01882329F12F
:10087000809139018F5F809339018370F1F481E0B9
:100880008093E9008091E80085FF17C080915E01A8
:100890008F5F80935E0120915F0182130EC01092E2
:1008A0005E01E1E6F1E081918093F10081E0E936BB
:1008B000F807C9F78AE38093E80090FF0CC080E155
:1008C0008093E20010926B0181E080936A0180EADC
:1008D0008093D80019BC80916A01882379F094FF35
:1008E0000DC082E189BD09B400FEFDCF80E980938F
:1008F000D8008DE08093E20010926A01FF91EF91A1
:10090000BF91AF919F918F917F916F915F914F9127
:100910003F912F910F900FBE0F901F9018951F922F
:100920000F920FB60F921124EF92FF920F931F9325
:100930002F933F934F935F936F937F938F939F93E7
:10094000AF93BF93CF93DF93EF93FF931092E900A0
:100950008091E80083FF21C0D091F100C091F100A7
:100960000091F1001091F100E090F100F090F100A1
:100970002091F1003091F10082EF8093E800C630C1
:1009800009F05AC08DE0E3ECF0E045915591041771
:10099000150739F035968150C1F781E28093EB005D
:1009A0002BC045915591E416F50611F03396F3CF1F
:1009B0004591559184912F3F310519F010F02FEF9B
:1009C00030E0821708F4282F3EEF8091E800982F3E
:1009D0009570D9F382FD10C0822F213408F080E495
:1009E000982F911122C0922F981B892F3093E800E5
:1009F000911119C02034B8F4FF91EF91DF91CF919C
:100A0000BF91AF919F918F917F916F915F914F9126
:100A10003F912F911F910F91FF90EF900F900FBE7C
:100A20000F901F901895282FD0CFFA014591409331
:100A3000F100AF019150D5CFC53041F48EEF8093D6
:100A4000E80068DE00680093E300D6CFC93011F5F6
:100A5000D1118CC000936B011092690110923C017E
:100A60008EEF8093E80081E0E4E2F3E021E0809300
:100A7000E9002093EB0095919093EC009591909371
:100A8000ED008F5F873099F78EE18093EA00109236
:100A9000EA00B2CFC83049F4D03809F067C03ADE76
:100AA00080916B018093F10010C0C13291F4D13A72
:100AB00009F00AC12FDEE1E0F1E080818093F100CE
:100AC000319681E0E830F807C1F78EEF8093E800B7
:100AD00093CFC03209F03EC0D13209F047C08091B7
:100AE000E80082FFFCCFE1E0F1E08091F10080833B
:100AF000319691E0E830F907C1F78BEF8093E80079
:100B00008EEF8093E8008091010190910201A09105
:100B10000301B091040186389105A105B10521F4C6
:100B20008FE080933B0168CF86399105A105B1051F
:100B300009F062CF84E08093E9009FEF8091EE009E
:100B4000837009F464DD9093E8008091E80082FDF1
:100B5000FCCFF4CFC23231F4D13241F400936901B9
:100B6000D9DDB3CFC332C1F4D132D1F382E0E8167C
:100B7000F10409F095C0D13A09F051C0C13009F033
:100B800041C0C8DDE1E6F1E081918093F10091E0A0
:100B9000E936F907C9F799CFC11111C0BBDDD238C9
:100BA00049F4E092E900C091EB00C5FBCC27C0F905
:100BB0001092E900C093F1001092F10086CF8C2FC3
:100BC0008D7F813099F6D23089F60115110509F033
:100BD00062C02E2D2F778FEF820F863008F05BC01A
:100BE0008EEF8093E8002093E900C33009F4D5CE5E
:100BF00089E18093EB0081E090E001C0880F2A95A5
:100C0000EAF743CFC23021F485DD80915F014ACFFE
:100C1000C33009F0C2CE7EDD8091600143CFD13276
:100C200009F0BBCEC93061F48091E80082FFFCCFAF
:100C30008091F10080935D018BEF8093E80045CFB8
:100C4000CA3029F410935F0110925E013ECFCB3081
:100C500009F0A3CE0093600138CFC33009F09DCED8
:100C600059DD80915B011ECF94E0E916F10409F093
:100C700094CED13A09F091CEC13009F08ECE4ADD42
:100C8000EFE4F1E08BE591E021912093F1008E17E4
:100C90009F07D1F71ACF82E0E816F10409F47DCE60
:100CA00083E0E816F10401F7D13AB9F4C130A9F6AE
:100CB00031DD80915C018093F1001092F10010927F
:100CC000F1001092F10078CF92E0E916F10409F4F6
:100CD000A6CF83E0E816F10439F6D13209F05DCEF3
:100CE000CB3009F05ACE00935B01EFCE90E080E06C
:100CF00008950895CF92DF92EF92FF920F931F9382
:100D0000CF93DF936C01EB017B01E40EF51E10E045
:100D100000E0CE15DF0561F06991D601ED91FC91FF
:100D20000190F081E02DC6010995080F191FF1CF40
:100D3000C801DF91CF911F910F91FF90EF90DF904D
:100D4000CF900895CF93DF9300D0CDB7DEB72DE0DD
:100D500029832AE02A83DC01ED91FC910280F38152
:100D6000E02D42E050E0BE016F5F7F4F09950F908C
:100D70000F90DF91CF910895CF93DF93CDB7DEB77A
:100D80002B970FB6F894DEBF0FBECDBFFE013C9689
:100D9000A3E34A9F44270A0E411D302D5A9F552731
:100DA000400D511D6A9F6627500D611D7A9F772760
:100DB000600D711D1124340F451F561F671F711DD3
:100DC000350F461F571F611D711D370F411D511DE6
:100DD000611D711D76956795579547953795AAE0E2
:100DE0003A9F312D1124DF01305D3E9341155105AD
:100DF0006105710509F5222341F0BD0161507109BA
:100E00002DE2DB012C93DF011297AE014A1B5B0B35
:100E1000445F5F4FFC0120813181F90122813381E0
:100E2000BD01F90109952B960FB6F894DEBF0FBEF0
:100E3000CDBFDF91CF910895FD01AACF20E077FFCC
:100E400008C070956095509541955F4F6F4F7F4FEB
:100E500021E092CF4F925F926F927F92AF92BF92BA
:100E6000CF92DF92EF92FF920F931F93CF93DF9376
:100E7000CDB7DEB729013A019B01AC012419350930
:100E80004609570989899A89AB89BC89BC01CD017A
:100E90006A197B098C099D0925D3A801970124199A
:100EA0003509460957094FD3CA01B9016A0D7B1D9F
:100EB0008C1D9D1DDF91CF911F910F91FF90EF90A1
:100EC000DF90CF90BF90AF907F906F905F904F90EA
:100ED000089511DB86DAE9DAFECFCF93DF931F9214
:100EE000CDB7DEB76983DC01ED91FC910280F3811F
:100EF000E02D41E050E0BE016F5F7F4F09950F90FC
:100F0000DF91CF910895FC018FB7F89490916B0118
:100F100091110CC090E08FBF2085318537FD03C053
:100F20009F3F09F09F5F892F90E0089593E0909391
:100F3000E9009091F2009111EECF2091E80022FF9C
:100F4000E9CF25FDE7CF2BE62093E800E4CFCF9350
:100F5000DF93EC018885998597FF09C0E881F981C5
:100F60000284F385E02DCE010995998788878885CD
:100F70009985DF91CF91089520916B01222371F023
:100F80002FB7F89433E03093E9003BE64091E80056
:100F900045FF03C03093E800F9CF2FBF2FEF3FEF9D
:100FA000FC01318720870895FC012085318537FDBC
:100FB00007C04FEF5FEF51874087C9019927089518
:100FC0009FB7F89480916B01811104C09FBF8FEF90
:100FD0009FEF089583E08093E9002BE68091E8007D
:100FE00085FD05C082FFF2CF2093E800F7CF809106
:100FF000F1002091E80025FD03C02BE62093E800D6
:101000009FBF90E00895BF92CF92DF92EF92FF9240
:101010000F931F93CF93DF937C0180916B0181111C
:1010200010C081E0F701828310E000E0C801DF9189
:10103000CF911F910F91FF90EF90DF90CF90BF90D5
:1010400008952FB7F89484E08093E90080913A01E5
:10105000882341F08091E80085FD02C02FBFE1CFD9
:1010600010923A0110E000E084E0D82E90E4C92EFE
:10107000A1EFB0E03AE3B32E33E04115510509F496
:10108000C0C08091E400815F9091E80095FD16C09A
:101090002FBF9091E400891306C081E080933A014C
:1010A000F7018283C3CF90916B01911102C081E05F
:1010B000F7CF2FB7F894D092E900E6CF8091F200F5
:1010C0009C2D981B9417150611F008F0942FE92F0A
:1010D000F0E04E1B5F0B0E0F1F1FEB01E0E4E91B5E
:1010E000E03428F4EE0FFF27E858F74F099480C04A
:1010F00099919C9399919C9399919C9399919C938C
:1011000099919C9399919C9399919C9399919C937B
:1011100099919C9399919C9399919C9399919C936B
:1011200099919C9399919C9399919C9399919C935B
:1011300099919C9399919C9399919C9399919C934B
:1011400099919C9399919C9399919C9399919C933B
:1011500099919C9399919C9399919C9399919C932B
:1011600099919C9399919C9399919C9399919C931B
:1011700099919C9399919C9399919C9399919C930B
:1011800099919C9399919C9399919C9399919C93FB
:1011900099919C9399919C9399919C9399919C93EB
:1011A00099919C9399919C9399919C9399919C93DB
:1011B00099919C9399919C9399919C9399919C93CB
:1011C00099919C9399919C9399919C9399919C93BB
:1011D00099919C9399919C9399919C9399919C93AB
:1011E00099919C9399919C9399919C9399919C939B
:1011F000BE018091E80085FFB092E80030933C0189
:101200003CCF2FBF13CF2FEF3FEFFC01318720875B
:1012100086DA0FB6F8948091310190913201A09155
:101220003301B09134010FBE9C0180916B01882382
:1012300029F068EC70E080E090E032CA80916A01A9
:10124000882301F10FB6F894409131015091320199
:1012500060913301709134010FBE80916A0188233F
:1012600089F00FB6F8948091310190913201A091EC
:101270003301B09134010FBE841B950B8B3F910558
:1012800060F308950FB6F894809131019091320186
:10129000A0913301B09134010FBE821B930B853CAA
:1012A000994008F4C2CF08956032710540F46A3065
:1012B000710569F06B30710561F48BE20895603857
:1012C000710538F4605F7C4FFB018491089588E2DA
:1012D000089580E0089580916B01882309F441C04E
:1012E0008FB7F89491E09093E9009091E4009E5CB0
:1012F00021E03091E80035FD0EC08FBF80916B0179
:10130000882379F18091E400981759F18FB7F89408
:101310002093E900EECF909161019093F1009091BC
:1013200062019093F100909163019093F10090918C
:1013300064019093F100909165019093F100909178
:1013400066019093F100909167019093F100909164
:1013500068019093F1009AE39093E80010925E0187
:101360008FBF0895CF93DF93EC0182E066FF80E0AA
:1013700080936101109262016F7360936301109218
:10138000640110926501109266011092670110923B
:101390006801CE01A0DF1092610110926301CE01BD
:1013A000DF91CF9198CF6111DDCF0895CF93DF9377
:1013B000EC0167FD0CC01B8270E0CE0175DF682F69
:1013C000CE01F1DF81E090E0DF91CF910895603CA4
:1013D000D0F46F738B81813039F41B828C819D81B5
:1013E0009C01262BB901E9CF823061F730E4639F7D
:1013F000B00111248C819D81682B792B7D836C83B6
:1014000081E08B83DFCF603E38F480E4689FB001D9
:101410001124607C7770F2CF8FEF603F90F7629578
:10142000607F1C826D8382E0ECCF0F9380916B0113
:101430008823B9F1603809F461E8403809F441E8DB
:10144000203809F421E8003809F401E88FB7F8944E
:1014500095E09093E9009091E4009E5C35E0509116
:10146000E80055FD0EC08FBF80916B018823C9F045
:101470008091E4009817A9F08FB7F8943093E900B1
:10148000EECF90915C019093F1006093F100409356
:10149000F1002093F1000093F1009AE39093E800AB
:1014A0008FBF0F910895E5E4F1E011861086128256
:1014B00088EE93E0A0E0B0E083839483A583B683B5
:1014C000178285E191E091838083EFE3F1E012825E
:1014D00013821482158287E291E0918380831092B7
:1014E0003D010895DB018F939F934FD0BF91AF9142
:1014F000A29F800D911DA39F900DB29F900D11246E
:101500000895A1E21A2EAA1BBB1BFD010DC0AA1F44
:10151000BB1FEE1FFF1FA217B307E407F50720F05C
:10152000A21BB30BE40BF50B661F771F881F991FD7
:101530001A9469F760957095809590959B01AC0120
:10154000BD01CF010895052E97FB16F400940FD02E
:1015500057FD05D0D6DF07FC02D046F408C05095F1
:101560004095309521953F4F4F4F5F4F089590958F
:101570008095709561957F4F8F4F9F4F0895EE0F27
:10158000FF1F0590F491E02D099409D0A59F900DBF
:10159000B49F900DA49F800D911D11240895A29FCA
:1015A000B001B39FC001A39F700D811D1124911D37
:1015B000B29F700D811D1124911D0895F894FFCFE5
:1015C0004000E10000000008583A200009593A2084
:1015D00000000000006D0703087606BC078307D4EF
:1015E00007A70700000000D6097A067606790600EC
:00000001FF
