:100000000C9453000C947B000C947B000C947B00AC
:100010000C947B000C947B000C947B000C947B0074
:100020000C947B000C947B000C947B000C947B0064
:100030000C947B000C947B000C947B000C947B0054
:100040000C9458020C947B000C9426020C94000231
:100050000C947B000C947B000C947B000C947B0034
:100060000C947B000C947B0000000000250028000D
:100070002B0000000000240027002A0004040404D0
:100080000404040402020202020203030303030342
:10009000010204081020408001020408102001021F
:1000A000040810205B0411241FBECFEFD8E0DEBF90
:1000B000CDBF11E0A0E0B1E0ECEDFDE002C00590A5
:1000C0000D92AA32B107D9F721E0AAE2B1E001C04E
:1000D0001D92A43DB207E1F710E0C3E5D0E004C0F3
:1000E0002197FE010E94E606C235D107C9F70E949A
:1000F000A2020C94EC060C940000AF92BF92CF9237
:10010000DF92EF92FF920F931F93CF93DF936C01D7
:100110007B018B01040F151FEB015E01AE18BF08B8
:10012000C017D10759F06991D601ED91FC9101906A
:10013000F081E02DC6010995892B79F7C501DF9182
:10014000CF911F910F91FF90EF90DF90CF90BF90D4
:10015000AF900895FC01538D448D252F30E0842FFE
:1001600090E0821B930B541710F0CF9608950197DF
:100170000895FC01918D828D981761F0A28DAE0FCC
:10018000BF2FB11D5D968C91928D9F5F9F73928F53
:1001900090E008958FEF9FEF0895FC01918D828D7F
:1001A000981731F0828DE80FF11D858D90E008954C
:1001B0008FEF9FEF0895FC01918D228D892F90E0A4
:1001C000805C9F4F821B91098F739927089587E365
:1001D00091E00E94DB0021E0892B09F420E0822FCE
:1001E000089580E090E0892B29F00E94E7008111BA
:1001F0000C9400000895FC01A48DA80FB92FB11D27
:10020000A35ABF4F2C91848D90E001968F7399274C
:10021000848FA689B7892C93A089B1898C9183702A
:1002200080648C93938D848D981306C00288F38923
:10023000E02D80818F7D80830895EF92FF920F9350
:100240001F93CF93DF93EC0181E0888F9B8D8C8D82
:1002500098131AC0E889F989808185FF15C09FB776
:10026000F894EE89FF896083E889F9898081837039
:10027000806480839FBF81E090E0DF91CF911F91E8
:100280000F91FF90EF900895F62E0B8D10E00F5F09
:100290001F4F0F731127E02E8C8D8E110CC00FB6DF
:1002A00007FCFACFE889F989808185FFF5CFCE0177
:1002B0000E94FB00F1CFEB8DEC0FFD2FF11DE35AF7
:1002C000FF4FF0829FB7F8940B8FEA89FB898081FA
:1002D0008062CFCFCF93DF93EC01888D8823B9F074
:1002E000AA89BB89E889F9898C9185FD03C0808141
:1002F00086FD0DC00FB607FCF7CF8C9185FFF2CFBE
:10030000808185FFEDCFCE010E94FB00E9CFDF9118
:10031000CF9108953FB7F89480912F0190913001CB
:10032000A0913101B091320126B5A89B05C02F3FA5
:1003300019F00196A11DB11D3FBFBA2FA92F982F0B
:100340008827BC01CD01620F711D811D911D42E006
:10035000660F771F881F991F4A95D1F70895FC01F2
:1003600001900020E9F73197AF01481B590BBC0100
:1003700087E391E00C947D008F929F92AF92BF92A1
:100380000F931F93CF93DF93CDB7DEB7A1970FB62F
:10039000F894DEBF0FBECDBF19A2423008F44AE088
:1003A0008E010F5D1F4F842E912CB12CA12CA50125
:1003B00094010E94C406E62FB901CA01EA30F4F4A0
:1003C000E05DD801EE938D01232B242B252B79F7AB
:1003D00090E080E0109719F0CD010E94AF01A19646
:1003E0000FB6F894DEBF0FBECDBFDF91CF911F9146
:1003F0000F91BF90AF909F908F900895E95CE1CFEF
:100400001F920F920FB60F9211242F933F934F9389
:100410005F936F937F938F939F93AF93BF93EF936C
:10042000FF9387E391E00E94FB00FF91EF91BF9162
:10043000AF919F918F917F916F915F914F913F917C
:100440002F910F900FBE0F901F9018951F920F9233
:100450000FB60F9211242F938F939F93EF93FF93D7
:10046000E0914701F09148018081E0914D01F091C8
:100470004E0182FD1BC09081809150018F5F8F7370
:1004800020915101821741F0E0915001F0E0E95CC8
:10049000FE4F958F80935001FF91EF919F918F9127
:1004A0002F910F900FBE0F901F9018958081F4CF61
:1004B0001F920F920FB60F9211242F933F938F9399
:1004C0009F93AF93BF9380912B0190912C01A091AA
:1004D0002D01B0912E0130912A0123E0230F2D37F9
:1004E00058F50196A11DB11D20932A0180932B017F
:1004F00090932C01A0932D01B0932E0180912F0198
:1005000090913001A0913101B09132010196A11D6D
:10051000B11D80932F0190933001A0933101B093CE
:100520003201BF91AF919F918F913F912F910F9089
:100530000FBE0F901F90189526E8230F0296A11D5D
:10054000B11DD2CF789484B5826084BD84B58160BA
:1005500084BD85B5826085BD85B5816085BD80918E
:100560006E00816080936E00109281008091810006
:1005700082608093810080918100816080938100FE
:10058000809180008160809380008091B1008460C0
:100590008093B1008091B00081608093B000809121
:1005A0007A00846080937A0080917A0082608093E0
:1005B0007A0080917A00816080937A0080917A003D
:1005C000806880937A001092C100E0E9F0E0249105
:1005D000ECE7F0E084918823C1F090E0880F991F48
:1005E000FC01EE58FF4FC591D491FC01E859FF4F33
:1005F000A591B4919FB7F8948881E22FE0958E235E
:1006000088838C91E823EC939FBFE0914701F091A0
:10061000480182E08083E0914301F091440110821F
:10062000E0914501F091460183E3808310924F01F0
:10063000E0914B01F0914C0186E08083E09149010B
:10064000F0914A01808180618083E0914901F091BD
:100650004A01808188608083E0914901F0914A01DC
:10066000808180688083E0914901F0914A01808116
:100670008F7D808382E191E00E94AF0110E4C0E0B1
:10068000D0E010937C0080917A00806480937A009F
:1006900080917A0086FDFCCF80917800609179008E
:1006A000762F682F072E000C880B990B0E949D0552
:1006B00020E030E040EA50E40E94520620E030E0C2
:1006C00040E85AE30E94520624EF3FEB44EB5DE31F
:1006D0000E94FA046B017C012CEE31E548EB5DE3EE
:1006E0000E94F50487FD4CC0C0923301D0923401C2
:1006F000E0923501F0923601C0903301D090340180
:10070000E0903501F0903601A7019601C701B601CE
:100710000E94BF068823E9F18DE191E00E94AF01BC
:100720000E948A016B017C0188EE882E83E0982E5E
:10073000A12CB12C0E948A016C197D098E099F0998
:10074000683E734081059105A8F321E0821A910863
:10075000A108B10888EEC80E83E0D81EE11CF11C88
:1007600081149104A104B10429F7209709F489CFD9
:100770000E94E700882309F484CF0E94000081CF03
:10078000109233011092340110923501109236010B
:10079000B3CF46015701E894B7F82FEF3FEF4FE78B
:1007A0005FE7C501B4010E94BF0681110DC02FEFA4
:1007B0003FEF4FE75FE7C501B4010E94F50418164B
:1007C0001CF481E291E0AACF2FEF3FEF4FE75FE407
:1007D000C701B6010E944D0618161CF485E291E08F
:1007E0009DCF2FEF3FEF4FE75FECC701B6010E94AF
:1007F000F50487FDF3CF20E030E0A901C701B60181
:100800000E94F50487FF09C06DE287E391E00E9432
:100810001D01F7FAF094F7F8F0942AE037ED43EA77
:100820005BE3C701B6010E9489044B015C010E9491
:100830006C056B017C010E949B059B01AC01C5010D
:10084000B4010E9488044B015C014AE0C701B60173
:100850000E94BC016EE287E391E00E941D0120E04E
:1008600030E040E251E4C501B4010E9452064B0160
:100870005C010E946C056B01F12CE12C4AE0C70180
:10088000B6010E94BC01C701B6010E949B059B01F5
:10089000AC01C501B4010E94880420E030E040E2D0
:1008A00051E40E9452060E946C0590E080E04AE00C
:1008B0000E94BC0135CFE7E3F1E01382128288EE9B
:1008C00093E0A0E0B0E084839583A683B78384E0BF
:1008D00091E09183808385EC90E09587848784EC18
:1008E00090E09787868780EC90E0918B808B81ECFD
:1008F00090E0938B828B82EC90E0958B848B86ECDE
:1009000090E0978B868B118E128E138E148E089525
:100910005058BB27AA270E94A0040C9413060E94DB
:10092000050638F00E940C0620F039F49F3F19F4B8
:1009300026F40C9402060EF4E095E7FB0C94FC05FB
:10094000E92F0E94240658F3BA1762077307840739
:10095000950720F079F4A6F50C9446060EF4E09580
:100960000B2EBA2FA02D0B01B90190010C01CA0169
:10097000A0011124FF27591B99F0593F50F4503E14
:1009800068F11A16F040A22F232F342F4427585F06
:10099000F3CF469537952795A795F0405395C9F71E
:1009A0007EF41F16BA0B620B730B840BBAF09150D6
:1009B000A1F0FF0FBB1F661F771F881FC2F70EC075
:1009C000BA0F621F731F841F48F487957795679548
:1009D000B795F7959E3F08F0B0CF9395880F08F034
:1009E0009927EE0F9795879508950E94D80508F4EA
:1009F00081E008950E940E050C9413060E940C06D7
:100A000058F00E94050640F029F45F3F29F00C944D
:100A1000FC0551110C9447060C9402060E94240612
:100A200068F39923B1F3552391F3951B550BBB271D
:100A3000AA2762177307840738F09F5F5F4F220F62
:100A4000331F441FAA1FA9F335D00E2E3AF0E0E859
:100A500032D091505040E695001CCAF72BD0FE2FA3
:100A600029D0660F771F881FBB1F26173707480737
:100A7000AB07B0E809F0BB0B802DBF01FF279358EF
:100A80005F4F3AF09E3F510578F00C94FC050C94B2
:100A900047065F3FE4F3983ED4F3869577956795D4
:100AA000B795F7959F5FC9F7880F911D9695879524
:100AB00097F90895E1E0660F771F881FBB1F621743
:100AC00073078407BA0720F0621B730B840BBA0B01
:100AD000EE1F88F7E09508950E942C0688F09F5736
:100AE00098F0B92F9927B751B0F0E1F0660F771F52
:100AF000881F991F1AF0BA95C9F714C0B13091F048
:100B00000E944606B1E008950C944606672F782FA0
:100B10008827B85F39F0B93FCCF38695779567950C
:100B2000B395D9F73EF490958095709561957F4F78
:100B30008F4F9F4F0895E89409C097FB3EF490951E
:100B40008095709561957F4F8F4F9F4F9923A9F0A6
:100B5000F92F96E9BB279395F69587957795679535
:100B6000B795F111F8CFFAF4BB0F11F460FF1BC079
:100B70006F5F7F4F8F4F9F4F16C0882311F096E90C
:100B800011C0772321F09EE8872F762F05C06623BA
:100B900071F096E8862F70E060E02AF09A95660F73
:100BA000771F881FDAF7880F9695879597F908952C
:100BB000990F0008550FAA0BE0E8FEEF161617066E
:100BC000E807F907C0F012161306E407F50798F0D6
:100BD000621B730B840B950B39F40A2661F0232BEF
:100BE000242B252B21F408950A2609F4A140A6956B
:100BF0008FEF811D811D089597F99F6780E870E050
:100C000060E008959FEF80EC089500240A94161682
:100C1000170618060906089500240A9412161306EA
:100C2000140605060895092E0394000C11F4882378
:100C300052F0BB0F40F4BF2B11F460FF04C06F5F94
:100C40007F4F8F4F9F4F089557FD9058440F551F6A
:100C500059F05F3F71F04795880F97FB991F61F03E
:100C60009F3F79F087950895121613061406551FB5
:100C7000F2CF4695F1DF08C0161617061806991F21
:100C8000F1CF86957105610508940895E894BB2716
:100C900066277727CB0197F908950E94D80508F4B5
:100CA0008FEF08950E9465060C9413060E940506B6
:100CB00038F00E940C0620F0952311F00C94FC05EE
:100CC0000C94020611240C9447060E94240670F32B
:100CD000959FC1F3950F50E0551F629FF001729FE1
:100CE000BB27F00DB11D639FAA27F00DB11DAA1FF0
:100CF000649F6627B00DA11D661F829F2227B00D3D
:100D0000A11D621F739FB00DA11D621F839FA00DC7
:100D1000611D221F749F3327A00D611D231F849F17
:100D2000600D211D822F762F6A2F11249F5750406E
:100D30009AF0F1F088234AF0EE0FFF1FBB1F661FE9
:100D4000771F881F91505040A9F79E3F510580F0B2
:100D50000C94FC050C9447065F3FE4F3983ED4F3F3
:100D6000869577956795B795F795E7959F5FC1F756
:100D7000FE2B880F911D9695879597F908950E94EF
:100D8000D805880B990B0895A1E21A2EAA1BBB1B4C
:100D9000FD010DC0AA1FBB1FEE1FFF1FA217B30747
:100DA000E407F50720F0A21BB30BE40BF50B661F5D
:100DB000771F881F991F1A9469F760957095809521
:100DC00090959B01AC01BD01CF010895EE0FFF1F6F
:0C0DD0000590F491E02D0994F894FFCFF9
:100DDC00000000001D017D00AA006A01DB00B900C3
:100DEC00CD0048454C4C4F204F4D4152006E616E2A
:0A0DFC0000696E66006F7666000065
:00000001FF
