:100000000C945D000C9485000C9485000C94850084
:100010000C9485000C9485000C9485000C9485004C
:100020000C9485000C9485000C9485000C9485003C
:100030000C9485000C9485000C9485000C9485002C
:100040000C940B020C9485000C947B020C945502CA
:100050000C9485000C9485000C9485000C9485000C
:100060000C9485000C94850000000008000201003B
:100070000003040700000000000000000000000072
:10008000250028002B0000000000240027002A0083
:10009000040404040404040402020202020203032E
:1000A0000303030301020408102040800102040836
:1000B0001020010204081020E20411241FBECFEF1B
:1000C000D8E0DEBFCDBF11E0A0E0B1E0ECE7FAE0A0
:1000D00002C005900D92A035B107D9F721E0A0E547
:1000E000B1E001C01D92A83FB207E1F710E0CDE5F5
:1000F000D0E004C02197FE010E943105CC35D10724
:10010000C9F70E94AD020C943C050C94000090E0ED
:10011000FC01EC55FF4F2491FC01E057FF4F849107
:10012000882399F090E0880F991FFC01EA57FF4F50
:10013000A591B491FC01E458FF4F859194918FB73C
:10014000F894EC91E22BEC938FBF0895CF92DF925D
:10015000EF92FF920F931F93CF93DF936C017A017D
:100160008B01C0E0D0E0CE15DF0589F0D8016D919C
:100170008D01D601ED91FC910190F081E02DC60139
:100180000995892B11F47E0102C02196ECCFC7019D
:10019000DF91CF911F910F91FF90EF90DF90CF9063
:1001A0000895FC01918D828D981761F0828DDF0199
:1001B000A80FB11D5D968C91928D9F5F9F73928F5A
:1001C00090E008958FEF9FEF0895FC01918D828D4F
:1001D000981731F0828DE80FF11D858D90E008951C
:1001E0008FEF9FEF0895FC01918D228D892F90E074
:1001F000805C9F4F821B91098F73992708958BE52F
:1002000091E00E94F30021E0892B09F420E0822F85
:100210000895FC01848DDF01A80FB11DA35ABF4FC3
:100220002C91848D90E001968F739927848FA689F5
:10023000B7892C93A089B1898C9180648C93938D1C
:10024000848D981306C00288F389E02D80818F7D0C
:1002500080830895EF92FF920F931F93CF93DF93C4
:10026000EC0181E0888F9B8D8C8D981305C0E88907
:10027000F989808185FD24C0F62E0B8D10E00F5F7B
:100280001F4F0F731127E02E8C8DE8120CC00FB694
:1002900007FCFACFE889F989808185FFF5CFCE0187
:1002A0000E940901F1CF8B8DFE01E80FF11DE35A89
:1002B000FF4FF0820B8FEA89FB898081806207C043
:1002C000EE89FF896083E889F98980818064808371
:1002D00081E090E0DF91CF911F910F91FF90EF901F
:1002E0000895CF93DF93EC01888D8823C9F0EA89C4
:1002F000FB89808185FD05C0A889B9898C9186FD1F
:100300000FC00FB607FCF5CF808185FFF2CFA8891B
:10031000B9898C9185FFEDCFCE010E940901E7CF0D
:10032000DF91CF91089580E090E0892B29F00E9421
:10033000FF0081110C940000089590E0FC01E85941
:10034000FF4F3491FC01EC55FF4F2491FC01E05725
:10035000FF4FE491EE2309F43BC0332339F13330EE
:1003600091F038F43130A9F0323001F584B58F7D49
:1003700012C0373091F03830A1F03430B9F48091A8
:1003800080008F7D03C0809180008F7780938000F4
:100390000DC084B58F7784BD09C08091B0008F7780
:1003A00003C08091B0008F7D8093B000F0E0EE0F2D
:1003B000FF1FE458FF4FA591B4918FB7F894EC91CB
:1003C000611103C020952E2301C02E2B2C938FBFCB
:1003D0000895009769F0FC0101900020E9F731973A
:1003E000AF01481B590BBC018BE591E00C94A600B2
:1003F00080E090E00895CF93DF930E94E901EC0143
:1004000080E191E00E94E9018C0F9D1FDF91CF9167
:1004100008950E9437051F920F920FB60F92112474
:100420002F933F938F939F93AF93BF9380915701E7
:1004300090915801A0915901B0915A013091560103
:1004400023E0230F2D3720F40196A11DB11D05C017
:1004500026E8230F0296A11DB11D2093560180931B
:10046000570190935801A0935901B0935A0180917C
:10047000520190915301A0915401B0915501019600
:10048000A11DB11D8093520190935301A09354017B
:10049000B0935501BF91AF919F918F913F912F9153
:1004A0000F900FBE0F901F9018951F920F920FB6CE
:1004B0000F9211242F933F934F935F936F937F93EA
:1004C0008F939F93AF93BF93EF93FF938BE591E04F
:1004D0000E940901FF91EF91BF91AF919F918F9180
:1004E0007F916F915F914F913F912F910F900FBE30
:1004F0000F901F9018951F920F920FB60F92112414
:100500002F938F939F93EF93FF93E0916B01F09163
:100510006C018081E0917101F091720182FD12C045
:100520009081809174018F5F8F7320917501821784
:1005300051F0E0917401F0E0E55AFE4F958F809301
:10054000740101C08081FF91EF919F918F912F9154
:100550000F900FBE0F901F901895CF93DF93CDB7DC
:10056000DEB7A1970FB6F894DEBF0FBECDBF78946B
:1005700084B5826084BD84B5816084BD85B58260A8
:1005800085BD85B5816085BD80916E008160809359
:100590006E001092810080918100826080938100C2
:1005A00080918100816080938100809180008160D2
:1005B000809380008091B10084608093B10080912D
:1005C000B00081608093B00080917A008460809355
:1005D0007A0080917A00826080937A0080917A001C
:1005E000816080937A0080917A00806880937A009D
:1005F0001092C100E0916B01F0916C0182E0808368
:10060000E0916701F09168011082E0916901F09139
:100610006A018FEC808310927301E0916F01F09179
:10062000700186E08083E0916D01F0916E01808120
:1006300080618083E0916D01F0916E01808188601E
:100640008083E0916D01F0916E01808180688083EC
:10065000E0916D01F0916E0180818F7D808382E059
:100660000E94870083E00E94870084E00E94870048
:1006700085E00E94870086E00E94870087E00E9454
:10068000870088E00E94870089E00E9487008AE056
:100690000E9487008BE00E9487008CE00E94870008
:1006A0008DE00E94870082E10E94870083E10E9422
:1006B00087008AE0882E912CA12CB12C8BE591E04B
:1006C0000E94F300892B09F44AC08BE591E00E9457
:1006D000D100E0915B01F0915C010190F081E02D8F
:1006E000682F8BE591E009953AC08BE591E00E9477
:1006F000D10090935101809350016C01990FEE0845
:10070000FF08F7FE35C0E0915B01F0915C010190BC
:10071000F081E02D6DE28BE591E0099522273327EA
:10072000A9012C193D094E095F0919A28E010F5D1F
:100730001F4FCA01B901A50194010E940F05605D18
:10074000F80162938F01211531054105510589F7A3
:10075000C8010E94E90180E191E00E94E9018BE576
:1007600091E00E94F300181619060CF4BECF16C0D3
:10077000A701960119A28E010F5D1F4FCA01B90191
:10078000A50194010E940F05605DF80162938F013D
:10079000211531054105510589F7DACF80915001C6
:1007A000909151018535910591F483E191E00E948A
:1007B000FB0161E082E00E949D0161E084E00E9413
:1007C0009D0160E083E00E949D0160E014C08434DC
:1007D000910599F486E191E00E94FB0160E082E0DE
:1007E0000E949D0160E084E00E949D0161E083E041
:1007F0000E949D0161E085E0E0C086349105F1F43E
:1008000084E391E00E94FB0161E086E00E949D018B
:1008100061E088E00E949D0161E08AE00E949D0104
:1008200061E08CE00E949D0160E087E00E949D01F4
:1008300060E089E00E949D0160E066C0823491051D
:10084000F1F48BE191E00E94FB0160E086E00E9400
:100850009D0160E088E00E949D0160E08AE00E94C6
:100860009D0160E08CE00E949D0161E087E00E94B4
:100870009D0161E089E00E949D0161E020C08C340F
:10088000910511F583E291E00E94FB0161E086E0B1
:100890000E949D0160E088E00E949D0161E08AE085
:1008A0000E949D0160E08CE00E949D0160E087E075
:1008B0000E949D0161E089E00E949D0160E08BE063
:1008C0000E949D0161E024C08235910519F588E2FE
:1008D00091E00E94FB0160E086E00E949D0161E0E2
:1008E00088E00E949D0160E08AE00E949D0161E035
:1008F0008CE00E949D0161E087E00E949D0160E024
:1009000089E00E949D0161E08BE00E949D0160E012
:100910008DE053C08334910531F48EE291E00E9462
:10092000FB0161E045C08336910551F48CE391E011
:100930000E94FB0160E082E10E949D0161E03CC0F9
:1009400083359105E1F58BE491E00E94FB0160E0C5
:1009500082E00E949D0160E083E00E949D0160E0D2
:1009600084E00E949D0160E085E00E949D0160E0BE
:1009700086E00E949D0160E087E00E949D0160E0AA
:1009800088E00E949D0160E089E00E949D0160E096
:100990008AE00E949D0160E08BE00E949D0160E082
:1009A0008CE00E949D0160E08DE00E949D0160E06E
:1009B00082E10E949D0160E083E10E949D010E940E
:1009C00093017CCEEBE5F1E01382128288EE93E096
:1009D000A0E0B0E084839583A683B78384E091E0B0
:1009E0009183808385EC90E09587848784EC90E008
:1009F0009787868780EC90E0918B808B81EC90E0EC
:100A0000938B828B82EC90E0958B848B86EC90E0CC
:100A1000978B868B118E128E138E148E0895A1E201
:100A20001A2EAA1BBB1BFD010DC0AA1FBB1FEE1F68
:100A3000FF1FA217B307E407F50720F0A21BB30BB3
:100A4000E40BF50B661F771F881F991F1A9469F72F
:100A500060957095809590959B01AC01BD01CF018B
:100A60000895EE0FFF1F0590F491E02D099481E0A9
:0C0A700090E0F8940C943C05F894FFCF43
:100A7C00000000002A01A600F300D100E50071017E
:100A8C000D0A00555000444F574E00526576657262
:100A9C007365004C65667400526967687400436C3A
:100AAC00616D7020466F727761726400436C616D8A
:100ABC0070204261636B776172640053746F7000D5
:00000001FF
